:100000000C9494040C94BC040C94BC040C94BC0498
:100010000C94BC040C94BC040C94BC040C94BC0460
:100020000C94BC040C94BC040C949A150C94091602
:100030000C94BC040C94BC040C94BC040C94BC0440
:100040000C94BC040C94BC040C94BC040C94BC0430
:100050000C94BC040C94BC040C94BC040C943B188D
:100060000C94BC040C94BC040C94BC040C94BC0410
:100070000C94BC040C94BC040C94BC040C94BC0400
:100080000C94BC040C94BC040C94BC040C94BC04F0
:100090000C94BC040C94BC040C94BC040C94BC04E0
:1000A0000C94BC040C94BC040C94BC040000000030
:1000B000003E5B4F5B3E3E6B4F6B3E1C3E7C3E1CEE
:1000C000183C7E3C181C577D571C1C5E7F5E1C0034
:1000D000183C1800FFE7C3E7FF0018241800FFE7EB
:1000E000DBE7FF30483A060E2629792926407F05AE
:1000F0000507407F05253F5A3CE73C5A7F3E1C1CC4
:1001000008081C1C3E7F14227F22145F5F005F5F83
:1001100006097F017F006689956A6060606060946F
:10012000A2FFA29408047E040810207E2010080874
:100130002A1C08081C2A08081E101010100C1E0C7F
:100140001E0C30383E3830060E3E0E060000000011
:100150000000005F00000007000700147F147F14F8
:10016000242A7F2A1223130864623649562050003D
:1001700008070300001C2241000041221C002A1C29
:100180007F1C2A08083E0808008070300008080814
:100190000808000060600020100804023E51494534
:1001A0003E00427F400072494949462141494D3352
:1001B0001814127F1027454545393C4A49493141B9
:1001C000211109073649494936464949291E000087
:1001D00014000000403400000008142241141414DC
:1001E0001414004122140802015909063E415D59C8
:1001F0004E7C1211127C7F494949363E41414122D1
:100200007F4141413E7F494949417F090909013EFA
:10021000414151737F0808087F00417F4100204021
:10022000413F017F081422417F404040407F021C33
:10023000027F7F0408107F3E4141413E7F0909094A
:10024000063E4151215E7F09192946264949493216
:1002500003017F01033F4040403F1F2040201F3FDC
:100260004038403F63140814630304780403615961
:10027000494D43007F4141410204081020004141A3
:10028000417F04020102044040404040000307084F
:100290000020545478407F2844443838444444284B
:1002A000384444287F385454541800087E090218F2
:1002B000A4A49C787F0804047800447D400020407A
:1002C000403D007F1028440000417F40007C0478BE
:1002D00004787C080404783844444438FC18242406
:1002E0001818242418FC7C08040408485454542486
:1002F00004043F44243C4040207C1C2040201C3C03
:100300004030403C44281028444C9090907C4464F9
:10031000544C44000836410000007700000041368C
:10032000080002010204023C2623263C1EA1A16112
:10033000123A4040207A3854545559215555794144
:100340002154547841215554784020545579400C1B
:100350001E527212395555555939545454593955FC
:100360005454580000457C410002457D420001453F
:100370007C40F0292429F0F0282528F07C545545AC
:10038000002054547C547C0A097F4932494949323F
:100390003248484832324A4848303A4141217A3A54
:1003A00042402078009DA0A07D39444444393D401E
:1003B00040403D3C24FF2424487E4943662B2FFCCB
:1003C0002F2BFF0929F620C0887E09032054547979
:1003D000410000447D413048484A32384040227A4A
:1003E000007A0A0A727D0D19317D2629292F2826C7
:1003F0002929292630484D402038080808080808CF
:100400000808382F10C8ACBA2F102834FA00007B27
:10041000000008142A142222142A1408950022002D
:1004200095AA005500AAAA55AA55AA000000FF00E7
:10043000101010FF00141414FF001010FF00FF1024
:1004400010F010F0141414FC001414F700FF000056
:10045000FF00FF1414F404FC141417101F10101FD5
:10046000101F1414141F00101010F0000000001FC3
:10047000101010101F10101010F010000000FF10CE
:100480001010101010101010FF10000000FF1400CA
:1004900000FF00FF00001F10170000FC04F41414FC
:1004A0001710171414F404F40000FF00F7141414C8
:1004B00014141414F700F7141414171410101F1048
:1004C0001F141414F4141010F010F000001F101F6B
:1004D0000000001F14000000FC140000F010F010D9
:1004E00010FF10FF141414FF141010101F00000050
:1004F00000F010FFFFFFFFFFF0F0F0F0F0FFFFFF54
:100500000000000000FFFF0F0F0F0F0F38444438AA
:10051000447C2A2A3E147E02020606027E027E02E5
:1005200063554941633844443C04407E201E200604
:10053000027E020299A5E7A5991C2A492A1C4C7241
:1005400001724C304A4D4D303048784830BC625AC8
:10055000463D3E494949007E0101017E2A2A2A2A58
:100560002A44445F444440514A444040444A514034
:100570000000FF0103E080FF000008086B6B0836F5
:1005800012362436060F090F060000181800000066
:100590001010003040FF0101001F01011E00191D55
:1005A0001712003C3C3C3C0000000000F0F89C8E20
:1005B0008783878E9CF8F00000FEFF03030303038C
:1005C000070EFCF80000FEFF0303030303070EFC05
:1005D000F80000FFFF00000000000000FFFF000027
:1005E000FEFF8383838383C7EE7C380000F8FC0E14
:1005F00007030303070EFCF800003F7FE0C0808084
:10060000C0E07F3FFFFF01010101010101FFFF0089
:1006100000FFFF0C0C0C0C1C3E77E3C100007FFFB9
:10062000C0C0C0C0C0E0703F1F00001F3F70E0C0EE
:10063000C0C0E0703F1F00007FFFC1C1C1C1C1E366
:10064000773E1C00001F3F70E0C0C0C0E0703F1F3D
:10065000000000000001FFFF01000000D5F08D1434
:10066000A1C881CFD9F1AF2000202A204C696D6943
:10067000742036332063686172730A00202A204890
:100680006964653A2055702B52696768742B420A79
:1006900000202A2053686F773A20446F776E2B52E0
:1006A000696768742B420A00202A20456E746572BF
:1006B00020746578740A002020515220436F6465CD
:1006C00020446973706C61796572200A0A00202DDC
:1006D0002D2D2D2D2D2D2D2D2D2D2D2D2D2D2D2D4A
:1006E0002D2D0A00202D5B68616C6F6F706479207E
:1006F0002D20323032345D2D0A0020202020207C35
:100700005E5F5C3B2C7E6022272020202020200082
:100710006E6F707172737475767778797A3C2B2D61
:100720003D2A253E24006162636465666768696AE4
:100730006B6C6D7B2E2F3A40267D23004E4F50511F
:1007400052535455565758595A283536373839293F
:1007500021004142434445464748494A4B4C4D5B82
:1007600030313233345D3F00080B000202020000DA
:100770000904000001020200000524001001052404
:100780000101010424020605240600010705810376
:1007900010004009040100020A00000007050202DF
:1007A0004000000705830240000004030904120111
:1007B0000002EF02014041233680000101020301E3
:1007C00041726475696E6F204C4C430041726475D0
:1007D000696E6F204C656F6E6172646F00FF070A6F
:1007E0000F141A1214181E1214181A1E16181C1E92
:1007F0001C1C1C1C1E1E1A1C1E1E1E1E1E1E1E1E27
:100800001E1E1E1E1E1EFF0A101A12181012161689
:100810001A1E161618181C1C1A1A1A1A1C1C1C1C34
:100820001C1C1C1C1C1C1C1C1C1C1C1C1C1C1CFF25
:100830000D16121A1218121614181C1A18141E1853
:100840001C1C1A1E1C1E1E1E1E1C1E1E1E1E1E1ED4
:100850001E1E1E1E1E1E1E1EFF111C1610161C1A0A
:100860001A181C181C1618181E1C1C1A1C1E181EE0
:100870001E1E1E1E1E1E1E1E1E1E1E1E1E1E1E1E98
:100880001EFF01010101010202020204040404042A
:100890000606060607080809090A0C0C0C0D0E0FBF
:1008A00010111213131415161819FF010101020279
:1008B0000404040505050809090A0A0B0D0E1011A8
:1008C0001112141517191A1C1D1F21232526282B58
:1008D0002D2F31FF01010202040406060808080A50
:1008E0000C100C11101215141717191B1D2222239E
:1008F00026282B2D303335383B3E4144FF01010281
:10090000040404050608080B0B1010121013151927
:100910001919221E202325282A2D303336393C3F31
:1009200042464A4D5100B81811241FBECFEFDAE0FD
:10093000DEBFCDBF11E0A0E0B1E0E6ECF1E402C023
:1009400005900D92A638B107D9F729E0A6E8B1E0E5
:1009500001C01D92AC32B207E1F714E0C4E9D4E063
:1009600004C02197FE010E948620C339D107C9F730
:100970000E94D5180C94E1200C940000E6E1F2E00E
:10098000A0E0B8E000800EBC8111012C1197A0FD01
:10099000FDCF0192B9F70DB40895FC0180911502C5
:1009A000882311F13FB7F89482E08093E900209109
:1009B000F200822F90E01816190614F481E090E0FE
:1009C000882339F0289844E6409314024091F100BE
:1009D0004083222339F02091F200211103C02BE63D
:1009E0002093E8003FBF08958FEF9FEF08952FB742
:1009F000F89483E08093E9009091E800892F807259
:100A000095FF04C09091F20080E4891B2FBF0895E8
:100A100080910C0281110DC082E08093080284E075
:100A20008093090210920B0210920A0281E08093D7
:100A30000C0288E092E00895CF93DF931F92CDB728
:100A4000DEB76983DC01ED91FC910280F381E02D3A
:100A500041E050E0BE016F5F7F4F09950F90DF913D
:100A6000CF91089583E08093E9008091F20088237C
:100A700019F08AE38093E80008950E94F70490E05B
:100A80000895CF93DF931F92CDB7DEB7FC01848525
:100A9000958597FD08C02FEF3FEF358724870F908E
:100AA000DF91CF910895CE0101960E94CD04019768
:100AB00019F4898190E0F3CF8FEF9FEFF0CF0F9380
:100AC0001F93CF93DF931F92CDB7DEB78C01FC014C
:100AD0008485958597FF0BC0CE0101960E94CD04B9
:100AE000019771F4898190E0F80195878487F80176
:100AF000848595850F90DF91CF911F910F91089577
:100B00008FEF9FEFF1CFFC018485958597FD0BC09A
:100B10009FB7F89482E08093E9008091F2009FBF34
:100B200090E0019608959FB7F89482E08093E900E1
:100B30008091F2009FBF90E0089540910202509191
:100B40000302209100023091010242175307B4F4CE
:100B50009091E8009570E1F39091E80092FD19C042
:100B60008093F100809102029091030201968F73AD
:100B70009927892B19F48EEF8093E8008091020267
:100B8000909103020196909303028093020281E008
:100B9000089580E00895DF92EF92FF920F931F93E4
:100BA000CF93DF93D82E8A01EB017B01E40EF51E73
:100BB000CE15DF0559F0D7FE12C0FE0184910E94C8
:100BC0009D0521968111F4CF0FEF1FEFC801DF9132
:100BD000CF911F910F91FF90EF90DF900895888142
:100BE000EECF0F931F93CF93DF931F92CDB7DEB756
:100BF00082E0898342E450E068E677E080E80E9482
:100C0000CB050E940805DC0112960D911C9101157F
:100C1000110589F0D801ED91FC910280F381E02D5E
:100C2000BE016F5F7F4FC801099597FD04C0F801B1
:100C300000851185ECCF89810F90DF91CF911F91B5
:100C40000F910895615030F02091F100FC01208354
:100C50000196F8CF289884E68093140208953FB750
:100C6000F8948091FC019091FD01A091FE01B0915A
:100C7000FF0126B5A89B05C02F3F19F00196A11DC5
:100C8000B11D3FBFBA2FA92F982F8827BC01CD01D6
:100C9000620F711D811D911D42E0660F771F881F35
:100CA000991F4A95D1F708958F929F92AF92BF9264
:100CB000CF92DF92EF92FF926B017C010E942F0690
:100CC0004B015C01C114D104E104F104B9F00E94AC
:100CD0002F06681979098A099B09683E73408105C6
:100CE000910580F321E0C21AD108E108F10888EEED
:100CF000880E83E0981EA11CB11CE4CFFF90EF90FA
:100D0000DF90CF90BF90AF909F908F9008958F927B
:100D10009F92AF92BF92CF92DF92EF92FF920F938A
:100D20001F93CF93DF936C017B018A0180910D01AA
:100D3000882309F45CC080911502882309F457C008
:100D40008091070280FF05C08091E000826080935F
:100D5000E000E801B12C8AEFA82E93E0892E2AE367
:100D6000922E209711F4BB20D9F10E94F704811133
:100D70000AC0AA94AA20D9F161E070E080E090E076
:100D80000E945406EECF8C171D0611F00CF08C2F2C
:100D90009FB7F8948092E9002091E80025FD02C0F9
:100DA0009FBFDFCF282F30E0C21BD30BF70181504C
:100DB00020F041914093F100FACFE20EF31EBB20E8
:100DC00021F09092E800B12CEBCF8091E80085FDF6
:100DD000E7CF9092E800BB24B394209709F3F3CFB8
:100DE0005D9884E680930602101611063CF081E0BF
:100DF00090E0F6019383828310E000E0C801DF9168
:100E0000CF911F910F91FF90EF90DF90CF90BF9007
:100E1000AF909F908F900895AF92BF92CF92DF9244
:100E2000EF92FF920F931F93CF93DF936C017B019F
:100E30008B01040F151FEB015E01AE18BF08C01730
:100E4000D10759F06991D601ED91FC910190F081A3
:100E5000E02DC6010995892B79F7C501DF91CF9166
:100E60001F910F91FF90EF90DF90CF90BF90AF90C8
:100E700008952D9A0895BC0190E080E00C945406EA
:100E80008FB18095807F669B88601C9B84600895ED
:100E900020E191E061FD94E060FD990F62FD929583
:100EA000687F269FD0011124A80FAA5EBD4F8C91A8
:100EB00040FF03C0892B8C93089590958923FBCF25
:100EC0008F929F92AF92BF92CF92DF92EF92FF925A
:100ED0000F93CF93DF935B01EC014C01840E911CC7
:100EE0006B01C20ED11CC815D905ECF47501B7FE13
:100EF00002C0F12CE12CC60121E4C216D10414F089
:100F000080E490E0E816F90664F4C038D10528F4CE
:100F1000402FB701CE010E9448078FEFE81AF80A68
:100F2000EACF2196E0CFDF91CF910F91FF90EF9024
:100F3000DF90CF90BF90AF909F908F90089580E00A
:100F4000E6E1F2E081118FEF002481938193819398
:100F500081930394D1F71092A00110929F011092F7
:100F6000A2011092A10108955F926F927F928F92D9
:100F70009F92AF92BF92CF92DF92EF92FF920F9328
:100F80001F93CF93DF936D3089F0C0909F01D09075
:100F9000A0016A30E9F41092A2011092A10188E048
:100FA000C80ED11CD092A001C0929F0181E090E0B8
:100FB000DF91CF911F910F91FF90EF90DF90CF9035
:100FC000BF90AF909F908F907F906F905F900895AB
:100FD00060909E01509000010091A1011091A2012A
:100FE000E5E06E9FE0011124C455DF4F5801F12C5C
:100FF000F5E0E12CFF1629F0CE010196FE01E49008
:10100000EC01460188E0782EE0FC18C0462D651002
:1010100016C0E6947A94EFEF8E1A9E0A7110F4CF00
:10102000F394FFEFAF1ABF0A86E0F812E1CF0A5F30
:101030001F4F1093A2010093A101B8CF452DF0E8F6
:10104000AF16B10430F780E48816910410F7B401AC
:10105000C5010E944807DDCF0F931F93CF93DF9305
:101060008C01D0E0C0E0F801EC0FFD1F6491662315
:1010700041F088E299E00E94B407892B11F0219693
:10108000F2CFCE01DF91CF911F910F9108959091F2
:10109000A701982329F49091A801982381E009F4ED
:1010A00080E00895CF93C82F0E944007982F9C237B
:1010B00081E09C1380E0CF91089580E00C94BE0401
:1010C0000F931F93CF93DF939C018B0167E070E038
:1010D0000E947220EB012296FB0131966AE170E0DA
:1010E0002032310579F0C901880F991F8C0F9D1F9F
:1010F000880F991F0196BF01660F771F0E9472200B
:10110000660F771F220F331F220F331F265F3F4FBB
:101110001E161F064CF086E0F8018083CE01DF9199
:10112000CF911F910F910895D801AE0FBF1F2C933F
:101130003197261B370BECCF47E050E090E0EDE114
:1011400070E0292F221F2227221F2E9F202D1124DD
:10115000990F92279B01042E02C0359527950A947A
:10116000E2F72170289F202D112492274150510928
:1011700040F7892F0895CF92DF92EF92FF92CF939D
:10118000C4E0803261F028F4C3E0803141F0C0E077
:1011900006C0C5E0803419F0C2E08038C1F70E9473
:1011A000520894E0C99F90011124882309F43FC09C
:1011B0009FB7F8944091F8015091F9016091FA01BC
:1011C0007091FB019FBFF901EA57FE4FC080D180AB
:1011D000E280F380C416D506E606F70680F59FB7D1
:1011E000F8944091F8015091F9016091FA017091E1
:1011F000FB019FBFC080D180E280F380E2E3F0E09A
:10120000CD28CE28CF2811F4EAEFF0E02A573E4F40
:101210004E0F5F1F611D711DF90140835183628371
:101220007383CF91FF90EF90DF90CF9008952A576E
:101230003E4FF9011082118212821382F2CF80E0B8
:10124000F0CF089590E080E00895FC010190002027
:10125000E9F73197AF01481B590BBC0188E299E0CF
:101260000C940C078091770790E09C01255131097F
:101270002D39310510F00E94AF2008959C01CB015B
:101280000197889710F00E94AF20CB01079661E18B
:1012900070E00E94722024303105F1F070F4660F86
:1012A000771F21303105A9F0665E7E4F223031056F
:1012B00051F7FB018081918108952730310591F02C
:1012C0002830310501F7660F771FFB01E25FFE4F03
:1012D000F1CF605E7E4FEDCF660F771FFB01EC5EB6
:1012E000FE4FE8CF90E080E00895FC01A081B0E0DF
:1012F000FD017597ED39F10530F46A177B0718F495
:101300004A175B0710F00E94AF20A49FF001A59F31
:10131000F00DB49FF00D11246E0F7F1FFB0133E021
:10132000F595E7953A95E1F73196E80FF91F808139
:101330006770772741E050E001C0440F6A95EAF7F3
:10134000222319F0482B4083089540954823FBCF72
:10135000AB012091770730E08217930748F46217BA
:10136000730730F420E0BC0187E797E00C9475091F
:101370000895CF92DF92EF92FF920F931F93CF9336
:10138000DF936830710510F00E94AF20880F991F1D
:10139000FC01E35DFE4FC081D18113E0CC0FDD1F66
:1013A0001A95E1F76C2B7D2BCB012AE030E0E7E3C7
:1013B000F5E0AC01440F551FEC01CD2FDD0FDD0B27
:1013C000C595CE9FC001CF9F900DDE9F900D11243B
:1013D000842795272150310961F7EB01DC2FCC27B9
:1013E000DD0FDD0FC82BD92B82E1C82784E5D82774
:1013F000D7FDCACF10E000E09E01002E02C0359557
:1014000027950A94E2F72170A80168E070E087E769
:1014100097E00E9475090F5F1F4F0630110561F7B5
:101420009E0186E0359527958A95E1F7217047E082
:1014300050E068E070E087E797E00E9475099E0140
:10144000220F232F221F330B217048E050E068E069
:1014500070E087E797E00E9475092D2F217048E022
:1014600050E067E070E087E797E00E94750909E0C7
:1014700010E02EE0E22EF12C9E01002E02C03595E8
:1014800027950A94E2F72170B701601B710B48E0C1
:1014900050E087E797E00E9475090F5F1F4F0F30FC
:1014A000110551F70E9432097C0110E000E06C0147
:1014B00081E0C81AD1089E01002E02C035952795FB
:1014C0000A94E2F72170B601601B710B48E050E00E
:1014D00087E797E00E9475090F5F1F4F08301105DD
:1014E00051F767018FE0C81AD1089E01002E02C093
:1014F000359527950A94E2F72170A601400F511FF8
:1015000068E070E087E797E00E9475090F5F1F4F62
:101510000F30110551F7A7014850510921E068E04B
:1015200070E087E797E0DF91CF911F910F91FF90D7
:10153000EF90DF90CF900C9475096F927F928F920D
:101540009F92AF92BF92CF92DF92EF92FF920F9352
:101550001F93CF93DF935C016B014A013901EB01CB
:10156000CE018C199D0986159705FCF0DF91CF916E
:101570001F910F91FF90EF90DF90CF90BF90AF90B1
:101580009F908F907F906F900895B7016A0D7B1D9B
:1015900021E0AE01C8010E9475098FEFE81AF80A30
:1015A000E814F90494F32196DBCFF12CE12CF8CF69
:1015B000DC01EC91F0E09F01255131092D39310515
:1015C00030F46E177F071CF44E175F0710F00E946F
:1015D000AF20E49F9001E59F300DF49F300D112462
:1015E000620F731F9B0143E0359527954A95E1F7FC
:1015F000820F931FFC01818190E06770772702C002
:10160000959587956A95E2F7817008953F924F927C
:101610005F926F927F928F929F92AF92BF92CF9282
:10162000DF92EF92FF920F931F93CF93DF935C01B2
:1016300088E0A816B10410F00E94AF200E94320981
:101640004C015524539410E000E081E0A81AB10841
:1016500093E0C92ED12C0815190594F0DF91CF9194
:101660001F910F91FF90EF90DF90CF90BF90AF90C0
:101670009F908F907F906F905F904F903F900895D4
:10168000380175946794F12CE12CD0E0C0E0852DF1
:101690008170482EA801BE0186E196E00E94D80A1A
:1016A00081112FC087E0A816B10460F4F501E55A56
:1016B000F44F0C948620680B6A0B8F0B930B9E0BD8
:1016C000A80BB20B342C3C1A832D8170382E0BC022
:1016D000852DFBCFCE01B6010E94722033243394B6
:1016E000892B09F0312CA801BE0187E797E00E9401
:1016F000D80A282F2325A801BE0187E797E00E947A
:1017000075092196E00EF11E8C169D0609F0C2CFD8
:101710000F5F1F4F5394852D8170582E9CCFCE01A3
:10172000800F911FD8CFCE01B6010E9472209B017D
:10173000260D371D20953095822FC7CFC701B601E2
:101740000E947220970121703327820F931FC6CF0A
:10175000C701B6010E947220970121703327280F1C
:10176000391FE8CF9E01200F311F21703327C70199
:10177000B6010E947220F3CFFC0122813381CB019C
:10178000880F991F680F791F6217730714F40E945E
:10179000AF2012161306D4F4848195818217930723
:1017A000A9F4C901880F991F820F931F46815781A1
:1017B0004817590759F4808591858217930731F4AA
:1017C00091E0428553854217530709F090E090FF5E
:1017D00024C060817181D901AA0FBB1FAA0FBB1F52
:1017E0004485558590E080E06A177B0744F0F1E07E
:1017F000E0E0421753070CF4F0E08F2F9E2F4A17BA
:101800005B076CF051E040E0621773070CF450E0A6
:10181000252F342F820F931F089590E080E030E051
:1018200020E0F8CFFC010197889710F00E94AF20CC
:10183000CF01089624E0880F991F2A95E1F78E9F23
:1018400090018F9F300D9E9F300D1124205C3F4FE3
:10185000E130F105E9F0CF0167E070E00E9472200D
:101860006E5F7F4F89E1869FA001879F500D1124F5
:101870004A505109469FC001479F900D569F900DB9
:101880001124C797281B390B379714F024523109BC
:10189000C901805D91098130934740F6C9010895DF
:1018A0000F931F93CF93DF93EC018B01643071058D
:1018B00010F00E94AF200E94120C49E2409F90015C
:1018C000419F300D11242C0F3D1FF901E352F84FB9
:1018D00064912F57374FF9012491AC0197FF02C053
:1018E000495F5F4FCA0133E0959587953A95E1F7D7
:1018F000269F801991091124DF91CF911F910F919B
:101900000895CF92DF92EF92FF920F931F93CF93A0
:10191000DF936131710588F46C01F12CE12C062E06
:1019200004C0F694E794D794C7940A94D2F7615010
:101930007109CD28CE28CF2869F10E94AF20D901A6
:10194000ED91FC91EF01A3E0D595C795AA95E1F73C
:10195000C40FD51FDC01062E02C0B695A7950A94C8
:10196000E2F7A170BB27E095F095E770FF278D01A6
:1019700002C0000F111FEA95E2F7F801F881EF2B82
:10198000E88361507109D901ED91FC91119731966D
:10199000ED93FC936F3F760791F6DF91CF911F9106
:1019A0000F91FF90EF90DF90CF9008952F923F928C
:1019B0004F925F926F927F928F929F92AF92BF925F
:1019C000CF92DF92EF92FF920F931F93CF93DF930B
:1019D000CDB7DEB72B970FB6F894DEBF0FBECDBFE5
:1019E0004C017B012C01440C551C440C551C62011C
:1019F00081E1C80ED11CCC9CA001CD9C500D500D96
:101A00001124495F5F4F93E0559547959A95E1F70B
:101A10004F5F5F4F70E060E0C7010E94C620F70192
:101A2000C0828701960141E050E070E060E086E00E
:101A300090E00E949D0A21E030E0A60166E070E09F
:101A400090E080E00E949D0A29E030E049E050E00B
:101A500070E060E090E080E00E949D0A6201F9E0A1
:101A6000CF0ED11C29E030E048E050E070E060E0AB
:101A7000C6010E949D0A28E030E049E050E0B6012E
:101A800090E080E00E949D0A81E08816910471F147
:101A9000BE016F5F7F4FC4010E9460083C01FE01E0
:101AA0003196F987E887B12CA12C01979B878A870B
:101AB000A614B7040CF468C097E089169104B4F03A
:101AC000E6E04E0E511C870126E030E043E050E096
:101AD00070E060E0C2010E949D0A23E030E046E031
:101AE00050E0B20190E080E00E949D0A2B960FB674
:101AF000F894DEBF0FBECDBFDF91CF911F910F9144
:101B0000FF90EF90DF90CF90BF90AF909F908F901D
:101B10007F906F905F904F903F902F900895A11409
:101B2000B10441F4C114D104E9F0EA85FB85EC1558
:101B3000FD05C1F08A859B858A159B0519F4C114A2
:101B4000D10481F0F10160816250770BE885F9855D
:101B50008081870125E030E045E050E08250990B1C
:101B60000E949D0AFFEFCF1ADF0A8FEF281A380A6A
:101B7000C614D704A1F6FFEFAF1ABF0A888599856E
:101B800001969987888794CFFE0131961F01D12C49
:101B9000C12CEECF0F931F93CF93DF938C01EB01FA
:101BA00088819981892B11F4040F151F4CE050E0B6
:101BB000BE01CE0102960E94B42019830883DF91F2
:101BC000CF911F910F9108952F923F924F925F9264
:101BD0006F927F928F929F92AF92BF92CF92DF923D
:101BE000EF92FF920F931F93CF93DF93CDB7DEB7A2
:101BF000ED970FB6F894DEBF0FBECDBF8C016B0121
:101C000022242394312C61E070E0C1010E94500C29
:101C10009CA78BA790E080E0412C512C320101154C
:101C2000110509F070C0C114D10409F47DC10E94EE
:101C3000AF20D8011296ED90FC90139716968D90D8
:101C40009C9017979CA28BA2F7FCF1CF97FCEFCF4B
:101C5000B1018D919C910E943E098131910538F727
:101C60009701FF0C440B550B812C912C540183944C
:101C7000082E04C0880C991CAA1CBB1C0A94D2F71D
:101C8000281539054A055B05ECF4092E000CAA0B52
:101C9000BB0B0496A11DB11DABA0BCA0A501BB0C44
:101CA000660B770B840F951FA61FB71F480E591E92
:101CB0006A1E7B1E81E090E0411420E85206610418
:101CC00071040CF139E02316310409F031C110928E
:101CD000770780E0ED960FB6F894DEBF0FBECDBF5C
:101CE000DF91CF911F910F91FF90EF90DF90CF90F8
:101CF000BF90AF909F908F907F906F905F904F902C
:101D00003F902F9008958C159D0508F492CF8BA5D8
:101D10009CA543E0880F991F4A95E1F78415950526
:101D20008CF281E090E09CA78BA7EE24E394F12C49
:101D3000B701C1010E94500C23E0880F991F2A951A
:101D4000E1F78415950514F0FCA6EBA69FEFE91AC0
:101D5000F90AA4E0EA16F10459F7C101880F991FA6
:101D6000880F991F4196889FA001899F500D500DA3
:101D70001124495F5F4F83E0559547958A95E1F7B8
:101D80004F5F5F4F70E060E087E797E00E94C620FA
:101D900018A21F8EB12CA12CAC14BD0408F4CCC029
:101DA0008F8D98A18415950509F041CF6BA57CA571
:101DB000C1010E94500C8C01E3E0000F111FEA9555
:101DC000E1F78F8D98A1081719070CF430CFB801EF
:101DD000681B790B6530710514F064E070E09E01BA
:101DE000215E3F4F47E757E090E080E00E94810C82
:101DF0008F8D98A128E030E0B9010E947220B901CE
:101E0000681B790B677077279E01215E3F4F47E77C
:101E100057E090E080E00E94810C8F8D98A1877040
:101E200099276CEEF62E7DEFE72E892B09F0FFCE79
:101E30008F8D98A1801791070CF4CEC02BA53CA5DF
:101E40002430310508F0F3CE29E28BA49CA4289D10
:101E5000C001299D900D1124820D931DFC01EF57A7
:101E6000F74F7490A72CB12CBEA2ADA2FC01E35297
:101E7000F84FE4918E2E912CC1010E94120C8C011E
:101E80006BA57CA5C1010E94500C7C01C80117FD07
:101E9000079653E0959587955A95E1F76DA17EA138
:101EA0000E947220ADA0BEA0A81AB90ABEA6ADA617
:101EB0005B01A818B908BAAAA9AA9401215031094E
:101EC0003CA32BA32E31310508F0B1CEAE014F5FFC
:101ED0005F4F6A01A40170E060E0C6010E94C62065
:101EE000EBA1FCA1EC0DFD1D81E08083B12CA12CA8
:101EF00066246394A814B9040CF0B2C18601662D5F
:101F0000D8018C910E949C08F80181938F019F0158
:101F10002C193D09281539050CF0F4C43197D80166
:101F20009C9189278083EBCF412C512C3201EFCE3D
:101F30004FEF241A340A67CE9E01215E3F4F47E7D8
:101F400057E064E070E0F801808191810E94810C8B
:101F5000B101D8018D919C910E943E099E01215EA4
:101F60003F4F47E757E0BC01F801828193810E940F
:101F7000810CF12CE12CAA24A394B12CF8018681C8
:101F80009781E816F9060CF007CFC701F3E09595A5
:101F90008795FA95E1F7D8011496ED91FC91E80F39
:101FA000F91F808190E097012095309527703327A5
:101FB00002C0959587952A95E2F79E01215E3F4FD5
:101FC00047E757E061E070E0817099270E94810C3B
:101FD000BFEFEB1AFB0AD2CF9E01215E3F4F47E7CE
:101FE00057E068E070E08F2D90E00E94810CFE24A5
:101FF0001FCF81E090E0EDA5FEA5AE16BF0614F45C
:1020000090E080E0E9A8FAA8E80EF91EA40170E0CB
:1020100060E0C8010E94C6205CAA4BAA5AA649A645
:1020200089A59AA5841995098E159F050CF4CBC036
:10203000C50130E020E02E153F050CF4F1C0ACAD39
:10204000BDADAA0DBB1DF801CF01801B910B8815FA
:1020500099050CF4FEC04E0C5F1C9FEFA91AB90A3B
:10206000ADA1BEA1AA16BB0624F267E777E0C101C5
:102070000E94D60CC1010E94120C97FD07967C01AC
:1020800023E0F594E7942A95E1F70E9432092C01A8
:102090008C0101501109470133E0880C991C3A95D5
:1020A000E1F79CA28BA2F12CE12C1EA30DA310162C
:1020B00011060CF4F7C08BA09CA08E149F0409F0AD
:1020C000B6CD0E9432099CA38BA307E010E07C01EF
:1020D00027E0E21AF1080E151F050CF43BC14BA1D5
:1020E0005CA1485051095EA34DA34A01EE24EA9435
:1020F000FE2C6BA07CA054E0651A71086701E3E038
:10210000CE1AD1080CEF1FEF442455244C185D085B
:10211000980117FF04C022273327201B310B5C2DA9
:102120004D2DD7FE02C0542D452D852F942F82179B
:1021300093070CF4C9018230910511F0049791F4D2
:10214000B701580183E0A80EB11CC5010E94A8097F
:10215000B701C301800F911F0E94A809B401C501F6
:102160000E94A8090F5F1F4F0530110589F69FEFE8
:10217000E91AF90AAFEF8A1A9A0AB8E0EB16F104E5
:1021800009F0BCCFF1E02F16310409F4ADC1BE0156
:102190006F5F7F4FC1010E9460084C019E012F5F5D
:1021A0003F4F3901D12CC12CAC01415051095AA7E4
:1021B00049A7C814D9040CF02DC1DE0111962D01D8
:1021C000F12CE12CF6C0A9A5BAA57D90BAA7A9A7C4
:1021D000F801808178267DAA4BA15CA16EA97FA918
:1021E000C8010E94B420A8ADB9AD1C926801FE01DF
:1021F00031963F01C30129A13AA1821B930B881597
:1022000099050CF00DCF6DA9D3018D913D010E9470
:102210009C08F60191916F01319789278083EACF5D
:1022200049A95AA94217530721F4ADA5BEA58A1B97
:102230009B0BEBA9FCA94191FCABEBABFC01EA5E6B
:10224000F94F40832F5F3F4F4DA15EA1840F951F33
:10225000F2CE81918C938AAD9BADA80FB91FF4CEBD
:10226000B12CA12C47E7442E47E0542E8701095892
:10227000184FD8011196BFABAEABEBA1FCA1E00F9C
:10228000F11FF9AFE8AF9E012F5F3F4F3AA329A39B
:10229000472D50E05BAF4AAFC7018A5E994F9DAFB3
:1022A0008CAFDECE0630110511F405E010E0D12C24
:1022B000C12CC80101969C01227033273AA729A797
:1022C000C414D5041CF002501109F1CE89A49AA4BB
:1022D0005601892821F4ADA0BEA0AC18BD08712C10
:1022E000612C480186189708A501B40187E797E09B
:1022F0000E94D80A811123C02BA13CA1E216F3064B
:10230000F4F4F70183E0F595E7958A95E1F7EA5E45
:10231000F94F208130E0C70180959095877099270B
:1023200002C0359527958A95E2F72170A501B40181
:1023300087E797E00E9475093FEFE31AF30A6A9472
:10234000672821F45FEFC51AD50ABACF66246394D3
:10235000712CC7CF20E0A80166E070E087E797E026
:102360000E94750920E046E050E0B80187E797E059
:102370000E9475090E5F1F4FAECEC114D10459F4EF
:10238000E114F10481F0A9A4BAA4EA14FB0459F001
:102390000FEF1FEF3BC0A9A4BAA4CA14DB04C1F716
:1023A000E114F104A9F73FEFE31AF30A4FEF441ADF
:1023B000540AE814F90409F75FEFC51AD50A8FEF3C
:1023C000681A780AF6CEA114B10421F421E00115AF
:1023D000110509F020E02170D2014C91400F512FDE
:1023E000511DF30160816A0D7B2D711D87E797E018
:1023F0000E947509FFEFAF1ABF0A22E0A216B104CE
:1024000011F70F5F1F4F0230110569F2AA24AA9439
:10241000BA2CE0CFB7E02B1631040CF465C0C10133
:102420002CE030E065E27FE1AC01440F551F4C0128
:10243000FBE095948794FA95E1F7869EC001879E0C
:10244000900D969E900D11248427952721503109D7
:1024500059F74101032C000CAA08BB085CE0880C6A
:10246000991CAA1CBB1C5A95D1F7092E000CAA0B6B
:10247000BB0B882A992AAA2ABB2AD501C40162E18A
:10248000B595A795979587956A95D1F7F12CE12C8D
:10249000892B8A2B8B2B09F0CACB0BA11CA10B50CB
:1024A0001109E82DE170DE2E2E2FA701B80187E774
:1024B00097E00E9475092D2DA801B70187E797E0E5
:1024C0000E947509B594A794979487940F5F1F4F46
:1024D0002DA13EA10217130721F73FEFE31AF30ADC
:1024E00046E0E416F104C9F666E176E0C1010E9417
:1024F000D60C8FEF9FEF9EA38DA388248A94982CEF
:10250000A82C3FE7B32E8DA69EA6AFA6B8AA1CA204
:102510001BA29E012F5F3F4F19018BA19CA10E941E
:10252000060B6BA17CA18BA59CA50E94B9090E94FA
:1025300032094C01F12CE12C412C512C3201E814D0
:10254000F9040CF49DC0F12CE12CE814F9040CF40E
:1025500010C1CC24C394D12C10E000E0A401415060
:1025600051095AAB49ABA9A8BAA80A151B050CF426
:10257000B0C110E000E0D12CC12C081519050CF4F5
:10258000ABC1889CA001899C500D500D11244A01BB
:10259000052E000CAA08BB0824E130E0D6010E94F9
:1025A00094206B017C019A01A6EFBFEF0E948C2062
:1025B000C60ED71EE81EF91EF7FE08C0F094E09480
:1025C000D094C094C11CD11CE11CF11CC80CD91CB6
:1025D000EA1CFB1CC701B601615071098109910910
:1025E000A50194010E94881E215031092A3031052D
:1025F00008F01DCB4AE0429FC001439F900D11247B
:10260000092E000CAA0BBB0B840D951DA61DB71D32
:10261000893B52E3950757E2A507B10508F007CBC0
:102620008DA49EA4AFA4B8A888159905AA05BB05DA
:1026300044F48DA79EA7AFA7B8ABABA0BCA0BEA229
:10264000ADA28BA19CA10E94060B2BA13CA12F5FE8
:102650003F4F3CA32BA32830310509F05ECF4DA19D
:102660005EA14830510508F0E2CACA010E94060B7B
:102670006DA17EA18BA59CA50E94B90981E02ACB02
:10268000D101EEE01D92EA95E9F7D12CC12CB12CD5
:1026900010E000E0A701B80187E797E00E94D80AA0
:1026A0008B1142C0FFEFCF1ADF0A25E0C216D1041A
:1026B00089F533E0430E511C611C711C0F5F1F4FE5
:1026C0008016910639F7BB2039F0A401B101C6018B
:1026D0000E94CA0DD12CC12CA801B101C8018C0DDA
:1026E0009D1D0E94CA0DB801C1010E94BC0B28E2C9
:1026F0005C012A9DC0012B9D900D1124092E000C18
:10270000AA0BBB0B480E591E6A1E7B1E3FEFE31A35
:10271000F30A15CF46E0C416D10484F25FEF451AE0
:10272000550A650A750ACACFA401B101C6010E9403
:10273000CA0DB11013C0B401C1010E94BC0BE8E284
:10274000DC01EA9FC001EB9F900D1124092E000CC3
:10275000AA0BBB0B480E591E6A1E7B1EA701B801AF
:1027600087E797E00E94D80AB82ECC24C394D12CD6
:10277000A5CFD101EEE01D92EA95E9F7D12CC12C4D
:10278000B12C10E000E0A801B70187E797E00E94B4
:10279000D80A8B1142C0FFEFCF1ADF0A25E0C2161C
:1027A000D10489F533E0430E511C611C711C0F5F8D
:1027B0001F4F8016910639F7BB2039F0A401B101F3
:1027C000C6010E94CA0DD12CC12CA801B101C801BB
:1027D0008C0D9D1D0E94CA0DB801C1010E94BC0B49
:1027E00028E25C012A9DC0012B9D900D1124092E29
:1027F000000CAA0BBB0B480E591E6A1E7B1E3FEF36
:10280000E31AF30AA2CE46E0C416D10484F25FEFC5
:10281000451A550A650A750ACACFA401B101C60155
:102820000E94CA0DB11013C0B401C1010E94BC0BBB
:10283000E8E2DC01EA9FC001EB9F900D1124092E14
:10284000000CAA0BBB0B480E591E6A1E7B1EA8016A
:10285000B70187E797E00E94D80AB82ECC24C3942A
:10286000D12CA5CFA801B70187E797E00E94D80A2D
:1028700089A757015FEFA51AB50AA801B50187E737
:1028800097E00E94D80A99A5981317C0A601B7012E
:1028900087E797E00E94D80AA9A5A8130EC0A60151
:1028A000B50187E797E00E94D80AB9A5B81305C01B
:1028B000E3E04E0E511C611C711C7501A9A8BAA859
:1028C000EA14FB047CF20F5F1F4F2FEFC21AD20AEB
:1028D0004ACEF12CE12CF2CFF12CE12CA801B7016A
:1028E00087E797E00E94D80A882319F02FEFC21AD1
:1028F000D20A3FEFE31AF30A8E149F0479F70F5FB1
:102900001F4F3BCE62E0862D0E949C08682E5FEF31
:10291000A51AB50AEFCA0C94721EEF92FF920F939C
:102920001F93CF93DF93CDB7DEB766970FB6F894BA
:10293000DEBF0FBECDBF00E028E140E870E060E000
:1029400090E080E00E946007E6E1F3E091E89150BA
:1029500031F08191DF01119780648C93F8CF109250
:10296000A2011092A1011092A00110929F0189EA88
:1029700091E0FC0101900020E9F7CF018A5A9140D3
:10298000182F89EAE82E81E0F82E00E00117C0F444
:102990000F33B1F085E1F701DE01119601900D9240
:1029A0008A95E1F71E8ACE0101960E94250983E5EA
:1029B00091E00E9425090B5EF5E1EF0EF11CE6CFD8
:1029C0001F3308F5812F65E10E94662046E0949F41
:1029D000900111243093A2012093A101E8E08E9F81
:1029E000C00111249093A00180939F0110920001D7
:1029F00011E010939E0186E591E00E942509109355
:102A0000000110929E0166960FB6F894DEBF0FBECD
:102A1000CDBFDF91CF911F910F91FF90EF9008955F
:102A2000CF92DF92EF92FF920F931F93CF93DF939A
:102A3000CDB7DEB766970FB6F894DEBF0FBECDBF39
:102A4000082F162F1E8A81E08093000110929E01AC
:102A500049EEC42E41E0D42E58E1E52EF12CF601CA
:102A6000619171916F0145E150E0CE0101960E94A4
:102A7000691E1092A2011092A101F092A001E092B1
:102A80009F01CE0101960E942509F8E0EF0EF11C8E
:102A900020E4E216F10419F710920001FF24F394E8
:102AA000F0929E01612F70E0E6E00E9FC0011124BC
:102AB0009093A2018093A101CB01039623E0880F9C
:102AC000991F2A95E1F79093A00180939F01660FCB
:102AD000771FDB01A751BE4FED91FC91E00FF11D77
:102AE000649188E299E00E94B407F092000110928C
:102AF0009E0166960FB6F894DEBF0FBECDBFDF9184
:102B0000CF911F910F91FF90EF90DF90CF9008959C
:102B100081E090E09093F6018093F5011092F4012A
:102B20001092F3010E949F0760E080E00E94101560
:102B30000C948D141F920F920FB60F9211248F9345
:102B40009F938091E1009091E100937F9093E10049
:102B500083FF0FC01092E90091E09093EB00109278
:102B6000EC0092E39093ED001092150298E09093A0
:102B7000F00082FF22C093E09093E9009091F20070
:102B8000992319F09AE39093E80090910602992313
:102B900041F090910602915090930602911101C06C
:102BA0005D9A90911402992341F0909114029150F2
:102BB00090931402911101C0289A84FF18C080914B
:102BC000E2008E7E81608093E2008091E1008F7E42
:102BD0008093E100809107028E7E806180930702DE
:102BE0009F918F910F900FBE0F901F90189580FFAF
:102BF000F7CF8091E2008E7E80618093E200809129
:102C0000E1008E7E8093E100809107028E7E8160DC
:102C1000E5CF1F920F920FB60F921124CF92DF9241
:102C2000EF92FF920F931F932F933F934F935F93D6
:102C30006F937F938F939F93AF93BF93EF93FF9384
:102C4000CF93DF93CDB7DEB76C97DEBFCDBF1092C9
:102C5000E9008091E80083FF25C068E0CE01459639
:102C60000E94220682EF8093E8008D8987FF39C099
:102C70009091E80090FFFCCF982F907609F034C136
:102C80009E894F89588D2F89F88C911131C08038D9
:102C900061F5809105028093F1001092F1008EEFB2
:102CA0008093E8006C960FB6F894DEBF0FBECDBFE0
:102CB000DF91CF91FF91EF91BF91AF919F918F9154
:102CC0007F916F915F914F913F912F911F910F9144
:102CD000FF90EF90DF90CF900F900FBE0F901F905E
:102CE00018959EEF9093E800C7CF1092F100D5CFD2
:102CF000913059F48111D3CF4130510581F6809143
:102D000005028D7F80930502CACF933049F481116B
:102D1000C6CF4130510519F6809105028260F2CF8D
:102D2000953041F48091E80080FFFCCF206820932B
:102D3000E300B5CF963009F0A9C00B8D1C8D22E0C1
:102D40001092E9001092030210920202F2122EC0B9
:102D500010920102109200020E94F1051F8299E078
:102D60009983FA8291E09E8390EA98879AEF9987F7
:102D70002091020230910302275F3F4F3C832B8357
:102D80008D831092E90010920302109202021093B8
:102D900001020093000249E050E0BE016F5F7F4FE7
:102DA00080E00E94CB050E94F10579CF10930102CB
:102DB000009300020E940805DC0112960D911C91FF
:102DC0000115110509F451C1D801ED91FC91048060
:102DD000F581E02DBE016B5E7F4FC801099500971C
:102DE00009F03EC1F80100851185EACFF3E0FF123A
:102DF0000EC08F89882309F440C0823061F440E816
:102E000060E18CEC97E00E948518811148CF81E247
:102E10008093EB0047CF813029F440E86BE080ECF1
:102E200097E0F1CF833099F70E940805DC011296F4
:102E3000ED90FC908E010F5F1F4F6801E114F104CB
:102E400079F0D701ED91FC910680F781E02DB80172
:102E5000C7010995080F111DF701E084F184EECF39
:102E6000D8011C92F60101900020E9F73197BF01CB
:102E70006C197D0940E0C601C6CF6AEA77E0FB0124
:102E8000449150E080E80E94CB0509CF973009F4C7
:102E9000BECF983021F481E08093F10000CF9930CB
:102EA00009F0FDCE837009F0B2CFE7E2F1E081E0F6
:102EB00031E096E32191222371F08093E900309371
:102EC000EB00DF0111972C912093EC009093ED0023
:102ED0008F5F873079F78EE78093EA001092EA00DF
:102EE0008F8980931502DBCE8B8D9C8D1092E9002B
:102EF000109203021092020290930102809300024A
:102F0000898D811192C08E899D89913A49F48132CF
:102F100009F07DCF47E050E066E071E080E0B3CF9C
:102F2000913209F074CF833269F48F89988DB0E0C3
:102F3000A0E08093020190930301A0930401B09359
:102F40000501ADCE803269F48091E80082FFFCCFAC
:102F500067E086E091E00E9422068BEF8093E80014
:102F60009ECE823209F09BCE8F8980930D01EEEFC9
:102F7000FFE7859194918B3F9C4D51F1E0E0F8E0A3
:102F80008091060190910701A0910801B09109017B
:102F9000803B9440A105B105F1F480910D0180FDC5
:102FA0001AC0EE3F8AE0F80789F587E797E7918333
:102FB0008083809160008093040288E19BE00FB6DB
:102FC000F894A895809360000FBE9093600067CE40
:102FD000EEEFFAE0D5CF808191818737974709F0EE
:102FE0005ECEA8958091600088618093600080919A
:102FF000040280936000EE3F2AE0F20789F080919E
:10300000FE0A9091FF0A9183808349CE808191814D
:103010008737980751F29093FF0A8093FE0AC5CF35
:103020001092FF0A1092FE0A3ACE0E940805DC01B7
:1030300012960D911C910115110509F4E8CED801E5
:10304000ED91FC910190F081E02DBE016B5E7F4F10
:10305000C8010995811123CEF80100851185EBCFB8
:10306000181619060CF41BCED2CEF1E0FF12BECE1C
:103070006EEA77E004CF1F920F920FB60F921124E1
:103080002F933F938F939F93AF93BF938091F801BA
:103090009091F901A091FA01B091FB013091F701F3
:1030A00023E0230F2D3758F50196A11DB11D209364
:1030B000F7018093F8019093F901A093FA01B0937E
:1030C000FB018091FC019091FD01A091FE01B09166
:1030D000FF010196A11DB11D8093FC019093FD019C
:1030E000A093FE01B093FF01BF91AF919F918F918B
:1030F0003F912F910F900FBE0F901F90189526E8CB
:10310000230F0296A11DB11DD2CFEF92FF920F9314
:103110001F93CF93DF93F82E192FE62E042F81E013
:10312000860F880F0E949D0583E00E949D05CF2D8C
:10313000D12FEC0EFD2EF11CCE15DF05B9F007FFE7
:1031400013C0FE0184910E949D05182F80E00E940B
:103150009D05812321968111EFCFDF91CF911F91A2
:103160000F91FF90EF9008958881EDCF81E0F5CF2A
:10317000E8EDF8E01382128288EE93E0A0E0B0E080
:1031800084839583A683B78389E391E091838083C9
:103190008FEF9FEF95878487E8E2F9E01382128230
:1031A0008BE491E0918380830895CF93DF93CDB733
:1031B000DEB7E7970FB6F894DEBF0FBECDBF7894A9
:1031C00084B5826084BD84B5816084BD85B582602C
:1031D00085BD85B5816085BD80916E0081608093DD
:1031E0006E00109281008091810082608093810046
:1031F0008091810081608093810080918000816056
:1032000080938000809191008260809391008091F2
:103210009100816080939100809190008160809303
:1032200090008091C10084608093C1008091C100B2
:1032300082608093C1008091C10081608093C10051
:103240008091C30081608093C3008091C000826040
:103250008093C0008091C20081608093C200809101
:103260007A00846080937A0080917A0082608093F3
:103270007A0080917A00816080937A0080917A0050
:10328000806880937A0010921502109205021092C5
:1032900007028091D70081608093D70080EA8093F5
:1032A000D80089B5806189BD89B5826089BD09B4BE
:1032B00000FEFDCF61E070E080E090E00E945406E7
:1032C0008091D8008F7C80618093D8008091E0004D
:1032D000807F8093E0008091E1008E7E8093E1000A
:1032E0008DE08093E200559A209A82E597E09093D2
:1032F000EA018093E9018CE397E09093EC018093DD
:10330000EB0186E297E09093EE018093ED0180E17E
:1033100097E09093F0018093EF018AEF96E090930D
:10332000F2018093F10181EC80937C0085B1806F84
:1033300085B984B1877E84B984B1876E84B95E9A79
:103340005F988AB1806D8AB9769A6E9881B3806FE2
:1033500081BB899880B38D7080BB80E58CBD81E096
:103360008DBD85E090E00E943B075F9A85E090E08C
:103370000E943B075E985C98ECE5F6E089E696E0F3
:1033800024912EBD00000DB407FEFDCF31968E179F
:103390009F07B1F75C9A81E8809364008091650093
:1033A0008160809365000E945D0880E80E94520859
:1033B0008823A9F05C9885EA8EBD00000DB407FE55
:1033C000FDCF5C9A2E982F982D9880916400806292
:1033D0008093640081E083BF889513BEFCCF84E0B6
:1033E0000E945208882309F448C02D9884E80E945E
:1033F00052088823E1F00E94390788EC90E00E948F
:103400003B072F9882E090E00E94721E8F3F29F0C8
:103410006FEF82E090E00E947A1E84EF91E00E94BC
:103420003B072F9A84E80E9452088111FBCF84E168
:103430000E9452088823E1F00E94390788EC90E04E
:103440000E943B072E9882E090E00E94721E882323
:1034500029F060E082E090E00E947A1E84EF91E023
:103460000E943B072E9A84E10E9452088111FBCFF3
:1034700088EC90E00E943B07B2CF0E94390782E0BF
:1034800090E00E948B14882309F469C03E9A3F9A09
:1034900081E090E00E948B14282F2470722E81FF0F
:1034A00011C021112E9801EF1FEFE8E0EE2EF12C54
:1034B00080E40E945208882309F454C02E9A2F9A5F
:1034C0000E94390782E390E00E943B070E94400778
:1034D0008111F8CF80E1809301011092F6011092E2
:1034E000F5010E949F0784EE96E00E942C088EEC66
:1034F00096E00E942C0887EB96E00E942C0888EA50
:1035000096E00E942C0881E996E00E942C088CE746
:1035100096E00E942C0889E696E00E942C08E9EAD1
:10352000F1E080E4DF011D928A95E9F78FB7F89406
:103530004091F8015091F9016091FA017091FB01FD
:103540008FBF8091A501882309F4CBC01092A501FB
:1035500080E090E0892B51F30E940000E7CF3E9875
:103560003F9896CF772029F00430110511F42E9A58
:103570002F9881E00E94BE04980117FF04C0222703
:103580003327201B310B27703327C80117FD0796FF
:1035900073E0959587957A95E1F717FF05C0019738
:1035A000A701421B530B9A01AC015695542F442797
:1035B000579547954A5E5D4FB0E0A0E02701421A5B
:1035C000530A8E3F6FEF960709F43BC06A01E4E9A6
:1035D000CE0ED11C5A0170E060E0FD01E455FA4FB7
:1035E0004F018F3F980779F0F401E60FF71FE49140
:1035F000F0E01F01022E01C0220C0A94EAF7F50147
:1036000064882628248A2115310581F0F401E60F0B
:10361000F71FE491F0E01F01042C02C035942794B9
:103620000A94E2F7F6016080262820826F5F7F4FC0
:10363000FFEFCF1ADF0AEFEFAE1ABE0A6835710549
:1036400081F60196A85ABF4F40585F4FA03BB10585
:1036500009F0B7CF0E945D088FE090E00E943B0721
:103660000F5F1F4F0931110509F022CF772011F0AC
:103670002F9A2D9880E991E00E943B070E9439071C
:1036800081E090E00E948B1480FF1CCF8AE090E0E4
:103690000E948B149FEF980F9E3F08F013CF22E3F8
:1036A00030E03093A2012093A10128E330E0309371
:1036B000A00120939F010BE010E0682F88E299E0C1
:1036C0000E94B407C8010E948B140F5F1F4F013185
:1036D000110599F70E945D0888EE93E00E943B0770
:1036E000F1CE8091A601B42FB81B8B2F90910101D0
:1036F000B91748F48F5F891708F02ACF81E083BF9C
:10370000889513BE25CF81E08093A5014093A60143
:103710008091A3019091A40101969093A4018093BC
:10372000A3018091A8018093A7010E944007809384
:10373000A8018091F5019091F601009749F488E085
:103740000E94470881110E9488150E945D0800CFE1
:103750008130910509F0B6C20091F4011091F30196
:1037600080E80E94BB08882349F0812F90E00496EE
:1037700065E070E00E9472208093F30180E10E9476
:10378000BB08882351F08091F30190E0069665E034
:1037900070E00E9472208093F30180E20E94BB08D7
:1037A000882349F0802F90E0449665E170E00E9404
:1037B00072208093F40180E40E94BB08882351F0BA
:1037C0008091F40190E0469665E170E00E947220DD
:1037D0008093F4018091F4016091F301081301C01A
:1037E00016130E94101588E00E9447088823C1F034
:1037F000A091F301B0E0AA0FBB1FA751BE4FE0910B
:10380000F4018D919C91E80FF92FF11DE491A9EA43
:10381000B1E00D900020E9F71197EC930E948D1410
:1038200084E00E944708882369F00E944007807F57
:1038300049F4E9EAF1E001900020E9F732971082BB
:103840000E948D1484E50E945208882309F47DCFDC
:10385000E2E0F0E0F093F601E093F5010E949F07AB
:1038600009EA11E0D8010D900020E9F78D010A5A0C
:10387000114099EAA92E91E0B92EF5010115110523
:1038800009F09CC070E060E090E080E00E94E40DF0
:103890000E9432094C01BC01990F880B990B0E94C0
:1038A000821F9B01AC0160E070E080E792E40E941F
:1038B000D81E0E94BD1F0E944A1F5B011B01869EED
:1038C000A001879E500D969E500D11246CE7E62EA8
:1038D000F12CE41AF50AF7FE03C0EFEFEE1AFE0A28
:1038E000F594E7943CE3432E512C441A550A57FEB5
:1038F00003C0FFEF4F1A5F0A559447944C5F01E0F5
:10390000242FB201C7010E946007BAAAA9AA22E027
:10391000420E511C10E000E0A7014E5F5F4F5FAB0D
:103920004EAB3324081519050CF00FCF6EA87FA8F5
:10393000620C731CF12CE12CC101840D951D9CAB14
:103940008BAB8091770790E0E816F9060CF0A4C1E4
:10395000081719070CF0A0C1A801B70187E797E085
:103960000E94D80A817091E098279DAB6301C2182C
:10397000D308C614D7040CF095C1520157FE02C0FB
:10398000B12CA12C8BA99CA98134910514F080E461
:1039900090E0A816B9060CF081C1A0E8CA16D104BF
:1039A00028F44DA9B501C6010E944807BFEFAB1A24
:1039B000BB0AE8CF80538A3008F0D1C081918111D1
:1039C000F9CF9801AAE0B0E00E94C91E6E5F7F4F58
:1039D0008F4F9F4F23E030E040E050E00E94881E70
:1039E00069017A01C11430E8D306E104F1041CF046
:1039F000109277074DCFA601495F5F4F83E0569540
:103A000047958A95E1F74236B1E05B0788F781E098
:103A100090E09AA789A71CA70BA770E060E086E159
:103A200096E00E94C62018AA1FA670E060E090E011
:103A300080E01AE0F50121915F0121113AC0611582
:103A4000710571F09B01220F331F620F731F6F5FAF
:103A50007F4F9E01215D3F4F46E156E00E94810C61
:103A60008FA598A98C159D0541F586E196E09EA746
:103A70008DA788E0FE01B996DE01599601900D925E
:103A80008A95E1F788E0FE017996DE019196019032
:103A90000D928A95E1F788E0FE01B196DE0151961C
:103AA00001900D928A95E1F761E070E0CE014196B8
:103AB000EDCE30ED320F3A3010F00E94AF20189F5B
:103AC000A001199F500D1124CA01C097820F911DAA
:103AD00027FD9A956F5F7F4F6330710509F0AACF7C
:103AE0009E01215D3F4F46E156E06AE070E00E9492
:103AF000810C70E060E090E080E09CCF062E000C2E
:103B0000770B88E591E00E94CD20892B61F5023684
:103B100041E0140708F06CCFA6E1B6E0E9EAF1E075
:103B200081918D93CF01895A914080179107C0F3FD
:103B300084E090E09A8B898BC801B0E0A0E073E04C
:103B4000880F991FAA1FBB1F7A95D1F7988F8F8B6B
:103B50001C8B0B8B86E196E09E8B8D8BA5CFB9EAF3
:103B6000EB2EB1E0FB2ED7016D917D016111C6CF27
:103B70009801ABE0B0E00E94C91E6B017C015FEFD1
:103B8000C51AD50AE50AF50AF594E794D794C794BF
:103B9000C11460E8D606E104F1040CF029CFA601B7
:103BA000495F5F4FA3E056954795AA95E1F74236E6
:103BB000B1E05B0708F01CCFE2E0F0E0FA8BE98BA4
:103BC0001C8B0B8B70E060E086E196E00E94C620C3
:103BD000188E1F8A912C812C10E000E0FDE27F2ED0
:103BE000D5016D915D0161112DC08A94892851F430
:103BF0009E01295E3F4F46E156E066E070E0C80155
:103C00000E94810C8F89988D8C159D0509F055CFE8
:103C100086E196E09E8B8D8B88E0FE017196DE0139
:103C2000119601900D928A95E1F788E0FE01319698
:103C3000DE01199601900D928A95E1F788E0FE0168
:103C400039962CCF062E000C770B88E591E00E9468
:103C5000CD20009709F431CF709E9001719E300DF8
:103C60001124885591408C01020F131F8A948928D2
:103C700079F49E01295E3F4F46E156E06BE070E02B
:103C8000C8010E94810C912C812C10E000E0A8CF8B
:103C900088248394912CA4CF80E064CEEFEFCE1AD9
:103CA000DE0A67CEFFEFEF1AFF0A29A93AA9620ED2
:103CB000731E8E149F0409F044CE0F5F1F4F420EF7
:103CC000531E30CE029709F040CD84EC0E9452087A
:103CD00039CDFB01DC0102C005900D9241505040EE
:103CE000D8F70895F999FECF92BD81BDF89A99272A
:103CF00080B50895262FF999FECF1FBA92BD81BDD8
:103D000020BD0FB6F894FA9AF99A0FBE019608955D
:103D1000052E97FB1EF400940E949F1E57FD07D0AE
:103D20000E94A71E07FC03D04EF40C949F1E5095D2
:103D30004095309521953F4F4F4F5F4F0895909597
:103D40008095709561957F4F8F4F9F4F0895A1E2A9
:103D50001A2EAA1BBB1BFD010DC0AA1FBB1FEE1F05
:103D6000FF1FA217B307E407F50720F0A21BB30B50
:103D7000E40BF50B661F771F881F991F1A9469F7CC
:103D800060957095809590959B01AC01BD01CF0128
:103D90000895A29FB001B39FC001A39F700D811D24
:103DA0001124911DB29F700D811D1124911D089544
:103DB0000E94EC1E0C9414200E940D2058F00E94CA
:103DC000062040F029F45F3F29F00C94D41F5111D4
:103DD0000C9460200C9403200E94252068F3992302
:103DE000B1F3552391F3951B550BBB27AA276217F7
:103DF0007307840738F09F5F5F4F220F331F441F04
:103E0000AA1FA9F335D00E2E3AF0E0E832D0915037
:103E10005040E695001CCAF72BD0FE2F29D0660F24
:103E2000771F881FBB1F261737074807AB07B0E867
:103E300009F0BB0B802DBF01FF2793585F4F3AF06D
:103E40009E3F510578F00C94D41F0C9460205F3F86
:103E5000E4F3983ED4F3869577956795B795F795F3
:103E60009F5FC9F7880F911D9695879597F90895DB
:103E7000E1E0660F771F881FBB1F62177307840777
:103E8000BA0720F0621B730B840BBA0BEE1F88F786
:103E9000E09508950E94511F6894B1110C94602020
:103EA00008950E942D2088F09F5798F0B92F9927E8
:103EB000B751B0F0E1F0660F771F881F991F1AF015
:103EC000BA95C9F714C0B13091F00E945F20B1E0FB
:103ED00008950C945F20672F782F8827B85F39F0FA
:103EE000B93FCCF3869577956795B395D9F73EF4AE
:103EF00090958095709561957F4F8F4F9F4F089556
:103F0000E89409C097FB3EF4909580957095619573
:103F10007F4F8F4F9F4F9923A9F0F92F96E9BB2729
:103F20009395F695879577956795B795F111F8CFA5
:103F3000FAF4BB0F11F460FF1BC06F5F7F4F8F4F10
:103F40009F4F16C0882311F096E911C0772321F006
:103F50009EE8872F762F05C0662371F096E8862F9E
:103F600070E060E02AF09A95660F771F881FDAF7F5
:103F7000880F9695879597F908950E94472090F0AD
:103F80009F3748F4911116F00C94602060E070E0C7
:103F900080E89FEB089526F41B16611D711D811D9D
:103FA0000C94DA1F0C94F51F97F99F6780E870E076
:103FB00060E00895882371F4772321F09850872BCF
:103FC000762F07C0662311F499270DC09051862BD8
:103FD00070E060E02AF09A95660F771F881FDAF785
:103FE000880F9695879597F908959F3F31F09150E6
:103FF00020F4879577956795B795880F911D9695CD
:10400000879597F908959FEF80EC089500240A940E
:104010001616170618060906089500240A941216A3
:104020001306140605060895092E0394000C11F4D6
:10403000882352F0BB0F40F4BF2B11F460FF04C083
:104040006F5F7F4F8F4F9F4F089557FD9058440FDC
:10405000551F59F05F3F71F04795880F97FB991FE7
:1040600061F09F3F79F087950895121613061406A4
:10407000551FF2CF4695F1DF08C016161706180631
:10408000991FF1CF869571056105089408950E94E6
:104090002D20A0F0BEE7B91788F4BB279F3860F445
:1040A0001616B11D672F782F8827985FF7CF869552
:1040B00077956795B11D93959639C8F30895E8945F
:1040C000BB2766277727CB0197F90895991B79E0DD
:1040D00004C0991F961708F0961B881F7A95C9F798
:1040E0008095089597FB072E16F4009407D077FD6E
:1040F00009D00E949B2007FC05D03EF49095819545
:104100009F4F0895709561957F4F0895EE0FFF1FA3
:104110000590F491E02D09940E94C91E332312F4F6
:104120008A1B9B0B0C9496200E94C91EB7FF089512
:10413000821B930B0895AA1BBB1B51E107C0AA1F4A
:10414000BB1FA617B70710F0A61BB70B881F991F38
:104150005A95A9F780959095BC01CD01089581E00D
:1041600090E0F8940C94E1206817790768F4FB015B
:10417000DC01E40FF51FA40FB51F02C002900E92E0
:1041800041505040D8F708950C94D820DC0101C06C
:104190006D9341505040E0F70895FC0181918617DE
:1041A00021F08823D9F7992708953197CF010895F1
:1041B000FB01DC0102C001900D9241505040D8F744
:0641C0000895F894FFCF02
:1041C6000110FFFFFFFF00E10000000000000800F3
:1041D6000A000C0008001000100009000B000D007A
:1041E6000A000C000E0000C18081000000010000E2
:1041F6000003000200000000001C0587063D053292
:1042060005830541055F0500000000B4070C072281
:104216000921090D0A002000303132333435363792
:1042260038394142434445464748494A4B4C4D4E2E
:104236004F505152535455565758595A2024252AEF
:064246002B2D2E2F3A0083
:00000001FF
